:040000000DEF00F010
:0400080002EF82F091
:06001800FF0075EF89F006
:10FEC40000FC0C010000000000009E110100000075
:10FED400C615010000000000000000000000000042
:10FEE400000000000000000000000000000000000E
:10FEF40000000000000000000000000000F61401F3
:10FF0400D41401B21401000000E810010000000044
:10FF140000000000000000000000000000000000DD
:10FF240000181501000000AC1501000000000000DD
:10FF340000000000000000000000000000000000BD
:10FF44000000BE1301000000000000000000B21613
:10FF540001000000024000EF0053696D706C6520E1
:10FF64005461736B204D616E6167657220657861C1
:10FF74006D706C652020202020202020202020204F
:10FF8400202020202020202020202020202020206D
:10FF940020202020202020202020200D0A002D2D8C
:10FFA4002D2D2D2D2D2D2D2D2D2D2D2D2D2D2D2D7D
:10FFB4002D2D2D2D2D2D2D2D2D2D2D2D2D2D2D2D6D
:10FFC4002D2D2D2D2D2D2D2D2D2D2D2D2D2D2D2D5D
:10FFD4002D2D2D2D2D2D2D2D2D2D2D2D2D2D2D2D4D
:10FFE4000D0A001B5B303B3066001B5B3F32356CF7
:0CFFF4000025640D0A001B5B324A00006F
:020000040001F9
:1000000027C53DF528C53EF529C53FF52AC540F56C
:100010002BC541F52CC542F52DC543F52EC544F53C
:1000200044BE15EF80F018EF80F0010E19EF80F05C
:10003000000E456E4550D8B420EF80F022EF80F0DE
:1000400032EF80F0441E431E421E411E401E3F1EE2
:100050003E1E3D6C000E3E223F22402241224222A3
:10006000432244220501C4BF40EF80F0C45106E1A1
:10007000C305D8B03EEF80F040EF80F046EF80F04F
:10008000000E3A6E010E396E4AEF80F0C3C539F5A5
:10009000C4C53AF5C1C53BF5C2C53CF54550D8B419
:1000A00054EF80F056EF80F06DEF80F03B06D8A063
:1000B0003C064550D8A45FEF80F061EF80F067EF19
:1000C00080F0000E386E2B0E376E6BEF80F0000E56
:1000D000386E2D0E376E37C545F5000E476E1F0E74
:1000E000466E000EE86FF1EF80F04606D8A0470696
:1000F000C90E4624D96E050E4720DA6E3DC507F5B8
:100100003EC508F53FC509F540C50AF541C50BF5E3
:1001100042C50CF543C50DF544C50EF50A0E0F6E2C
:10012000000E106E000E116E000E126E000E136E99
:10013000000E146E000E156E000E166EC3EC82F0EB
:1001400007C52FF508C530F509C531F50AC532F5E3
:100150000BC533F50CC534F50DC535F50EC536F5B3
:100160002FC519F530C51AF537EC89F01950300F45
:10017000DF6E3906D8A03A063B06D8A03C063DC53E
:1001800007F53EC508F53FC509F540C50AF541C567
:100190000BF542C50CF543C50DF544C50EF50A0E29
:1001A0000F6E000E106E000E116E000E126E000E1D
:1001B000136E000E146E000E156E000E166E3EECE1
:1001C00081F007C53DF508C53EF509C53FF50AC5EF
:1001D00040F50BC541F50CC542F50DC543F50EC5FF
:1001E00044F547BEFCEF80F0475008E14604D8A034
:1001F000FCEF80F0FEEF80F01AEF81F03D503E10F2
:100200003F1040104110421043104410D8A40BEF8F
:1002100081F00DEF81F075EF80F03ABE1AEF81F0BA
:100220003A5006E13904D8B018EF81F01AEF81F0A6
:1002300075EF80F04550D8B420EF81F022EF81F0C7
:100240002DEF81F04606D8A04706C90E4624D96E88
:10025000050E4720DA6E45C5DFF425C51AF526C51B
:100260001BF5C90E46241C6E050E47201D6E3BC5AE
:100270001EF53CC51FF505EC88F01200000E186E47
:1002800016BE47EF81F045EF81F059EF81F0161E61
:10029000151E141E131E121E111E101E0F6C000EB2
:1002A0001022112212221322142215221622010ECC
:1002B000186E0EBE60EF81F05EEF81F072EF81F09C
:1002C0000E1E0D1E0C1E0B1E0A1E091E081E076C9C
:1002D000000E082209220A220B220C220D220E22D5
:1002E000010E181A21EE19F1070EDE6AE806FDE28A
:1002F0000F501010111012101310141015101610AA
:10030000D8B485EF81F087EF81F0D9EF81F0010E4D
:10031000176E95EF81F0D8900F36103611361236E1
:100320001336143615361636172A16AE9AEF81F0A4
:100330009CEF81F08BEF81F0D89019361A361B367E
:100340001C361D361E361F3620360F50075C1050E7
:1003500008581150095812500A5813500B5814508D
:100360000C5815500D5816500E58D8A0BAEF81F001
:10037000BCEF81F0CDEF81F00F50075E1050085AAE
:100380001150095A12500A5A13500B5A14500C5A51
:1003900015500D5A16500E5A1980D8901632153233
:1003A000143213321232113210320F32172E9CEFE8
:1003B00081F01850D8B4DFEF81F0E1EF81F0F1EF78
:1003C00081F0201E1F1E1E1E1D1E1C1E1B1E1A1E1F
:1003D000196C000E1A221B221C221D221E221F2213
:1003E000202219C507F51AC508F51BC509F51CC556
:1003F0000AF51DC50BF51EC50CF51FC50DF520C56D
:100400000EF51200FAC405F5FBC406F59EAE0BEF1F
:1004100082F00DEF82F016EF82F0AEAE12EF82F0B6
:1004200014EF82F016EF82F0A2EC8BF0A8A01BEF85
:1004300082F01DEF82F028EF82F0B8A022EF82F068
:1004400024EF82F028EF82F07FEC8BF0BEEF82F099
:10045000A5A62DEF82F02FEF82F03AEF82F0B5A63D
:1004600034EF82F036EF82F03AEF82F0A0EC85F0C4
:10047000BEEF82F0A5A03FEF82F041EF82F04CEF9B
:1004800082F0B5A046EF82F048EF82F04CEF82F0A8
:10049000F9EC8AF0BEEF82F0A5A451EF82F053EFA1
:1004A00082F05EEF82F0B5A458EF82F05AEF82F04E
:1004B0005EEF82F07AEC87F0BEEF82F0A5A263EFE8
:1004C00082F065EF82F070EF82F0B5A26AEF82F001
:1004D0006CEF82F070EF82F0EEEC8AF0BEEF82F00B
:1004E000A2A275EF82F077EF82F08EEF82F0B2A2D7
:1004F0007CEF82F07EEF82F08EEF82F002D88CEFFC
:1005000082F00500FA6E0501BB51FD6EBC51FE6E16
:10051000BD51FF6EFA501200BEEF82F0A2A093EF21
:1005200082F095EF82F0ACEF82F0B2A09AEF82F009
:100530009CEF82F0ACEF82F002D8AAEF82F00500C7
:10054000FA6E0501B851FD6EB951FE6EBA51FF6EDB
:10055000FA501200BEEF82F0A1AEB1EF82F0B3EF1D
:1005600082F0BEEF82F0B1AEB8EF82F0BAEF82F067
:10057000BEEF82F0ACEC89F0BEEF82F006C5FBF472
:1005800005C5FAF41100000E186E0EBECCEF82F015
:10059000CAEF82F0DEEF82F00E1E0D1E0C1E0B1E47
:1005A0000A1E091E081E076C000E082209220A22D4
:1005B0000B220C220D220E22010E186E16BEE5EF44
:1005C00082F0E3EF82F0F5EF82F0161E151E141E86
:1005D000131E121E111E101E0F6C000E102211226F
:1005E000122213221422152216220F50101011105D
:1005F00012101310141015101610D8B402EF83F057
:1006000004EF83F04CEF83F0010E176E12EF83F0CE
:10061000D8900F361036113612361336143615367A
:100620001636172A16AE17EF83F019EF83F008EF8E
:1006300083F00F50075C10500858115009581250A1
:100640000A5813500B5814500C5815500D5816508A
:100650000E58D8A02EEF83F030EF83F040EF83F0F8
:100660000F50075E1050085A1150095A12500A5A7A
:1006700013500B5A14500C5A15500D5A16500E5A4E
:10068000D89016321532143213321232113210321F
:100690000F32172E19EF83F01850D8B452EF83F0B1
:1006A00054EF83F064EF83F00E1E0D1E0C1E0B1E24
:1006B0000A1E091E081E076C000E082209220A22C3
:1006C0000B220C220D220E2207C507F508C508F5DE
:1006D00009C509F50AC50AF50BC50BF50CC50CF5DE
:1006E0000DC50DF50EC50EF512004AC5D9F44BC562
:1006F000DAF4DEC4F6F4DDC4F7F4000EF86E080098
:10070000F550250AD8A487EF83F089EF83F00DEF29
:1007100084F04AC5D9F44BC5DAF4DE2A000EDD2296
:10072000000E0501C26F000EC16FC1C5C7F5C369D8
:10073000C4694AC5D9F44BC5DAF4DEC4F1F5DDC4A9
:10074000F2F5F1C5F6F4F2C5F7F4000EF86E080004
:10075000F550640AD8B4AFEF83F0B1EF83F0C1EF86
:1007600083F0F1C5F6F4F2C5F7F4000EF86E080058
:10077000F550690AD8A4BFEF83F0C1EF83F004EF0E
:1007800084F04CC5D9F44DC5DAF4DFC44EF5020E41
:10079000DE26DFC44FF5000EDD224EC5D9F44FC56D
:1007A000DAF4DEC4E9F5DDC4EAF5000EEABFFF0EB7
:1007B000EB6FEC6FED6FEE6FEF6FF06F010EF125E9
:1007C0004E6E000EF2214F6E4AC5D9F44BC5DAF4D5
:1007D0004EC5DEF44FC5DDF448C525F549C526F5FF
:1007E000E9C527F5EAC528F5EBC529F5ECC52AF5D5
:1007F000EDC52BF5EEC52CF5EFC52DF5F0C52EF5A5
:1008000000EC80F023EF84F04AC5D9F44BC5DAF44C
:10081000DE2A000EDD2223EF84F04AC5D9F44BC551
:10082000DAF4DEC4F6F4DDC4F7F4000EF86E080066
:10083000F5500A6E0B6A48C50CF549C50DF52FEC4D
:1008400087F004EF84F01200000EBE6E060EBF6E3D
:10085000000EC06E000EC16E000EC26E000EC36EA2
:10086000C668F10EC76E6F0EC86EBF0EC96E0F0E52
:10087000CA6EF60ECB6E04010069D10E086F2F0E02
:10088000106FBF0E186F030E206FF40E286F000E4E
:10089000016F000E096F000E116F000E196F000E30
:1008A000216F000E296F000E0201896F000E886F04
:1008B000000E876F000E866F000E0401026F060E99
:1008C0000A6F000E126F000E1A6F000E226F000EDC
:1008D0002A6F03690B6913691B69070E236F2B6964
:1008E00004690C6914691C690F0E246F2C69290EA8
:1008F0000201726F0D0E406F200E296F320E156FC0
:10090000160E6A6F310E176F090E716F370E0A6F70
:100910000A0E706F380E0B6F000E0401056F000E8B
:10092000066F000E076F000E0D6F000E0E6F000EAB
:100930000F6F000E156F000E166F000E176F000E72
:10094000256F000E266F000E276F1200000E0601A5
:10095000906F9051080D050EF324D96E060EF42009
:10096000DA6EDE50DE10DE10D8B4B9EF84F0BBEFE3
:1009700084F01CEF85F09051080D040EF324D96E1D
:10098000060EF420DA6EDF50D8B4C9EF84F0CBEF56
:1009900084F01CEF85F09051080D040EF324D96EFD
:1009A000060EF420DA6E000EDF6E9051080D050E73
:1009B000F324D96E060EF420DA6EDE50DE10DE105F
:1009C000D8B4E5EF84F0E7EF84F0FCEF84F09051C9
:1009D000080D050EF324D96E060EF420DA6E02D847
:1009E000FCEF84F00500FA6EDE50FD6EDE50FE6E08
:1009F000DE50FF6EFA50120006019051080D020EF3
:100A0000F324D96E060EF420DA6EDE50DE10D8A480
:100A10000CEF85F00EEF85F01CEF85F09051080D7E
:100A2000050EF324D96E060EF420DA6E000EDE6E8B
:100A3000000EDE6E000EDE6E902B090E906523EF29
:100A400085F025EF85F0A9EF84F012005650020DD5
:100A5000600EF324D96E050EF420DA6E000EDE6E01
:100A6000000EDD6E0201B2A738EF85F03AEF85F097
:100A70005BEF85F05650020D600EF324D96E050E23
:100A8000F420DA6E0501DF82A951AA11AB11D8B4A6
:100A90004CEF85F04EEF85F05BEF85F002D85BEF11
:100AA00085F00500FA6EA951FD6EAA51FE6EAB519C
:100AB000FF6EFA5012000201B2A361EF85F063EFFE
:100AC00085F084EF85F05650020D600EF324D96E48
:100AD000050EF420DA6E0501DF84A651A711A811D6
:100AE000D8B475EF85F077EF85F084EF85F002D804
:100AF00084EF85F00500FA6EA651FD6EA751FE6EDB
:100B0000A851FF6EFA501200A1C201F556280F0B32
:100B1000026E55500218D8A490EF85F092EF85F040
:100B200094EF85F09FEF85F0800E5624D96EDA6A37
:100B3000050EDA2201C5DFF402C556F5542A12006B
:100B400025EC8BF00009D8B4A8EF85F0AAEF85F06A
:100B5000B3EF85F0030E05019C6F0201979B57ECE4
:100B600089F0FEEF85F030EC8BF00009D8B4BBEFD4
:100B700085F0BDEF85F0D0EF85F004EC8BF0000937
:100B8000D8B4C5EF85F0C7EF85F0D0EF85F0010E42
:100B900005019C6F0201979946EC8AF0FEEF85F003
:100BA0000FEC8BF00009D8B4D8EF85F0DAEF85F0C0
:100BB000EBEF85F004EC8BF00009D8B4E2EF85F0A0
:100BC000E4EF85F0EBEF85F0020E05019C6F02016A
:100BD0009799CCEF85F01AEC8BF00009D8B4F3EFBD
:100BE00085F0F5EF85F0FCEF85F0030E05019C6FB5
:100BF0000201979DFEEF85F00201979905019C5136
:100C0000D8B405EF86F007EF86F014EF86F002D82F
:100C100014EF86F00500FA6EBE51FD6EBF51FE6EF8
:100C2000C051FF6EFA5012001200000E046E045004
:100C3000080D050EF324D96E060EF420DA6EDE5090
:100C4000DE10DE10D8B427EF86F029EF86F074EFBF
:100C500086F00450080D000EF324D96E060EF42021
:100C6000DA6EDE50DE10D8B438EF86F03AEF86F058
:100C700045EF86F00450080D000EF324D96E060EE1
:100C8000F420DA6EDE06000EDD5A0450080D000E68
:100C9000F324D96E060EF420DA6EDE50DE10D8A4EE
:100CA00054EF86F056EF86F074EF86F00450080D8E
:100CB000020EF324D96E060EF420DA6E0450080DED
:100CC000000EF324E16E060EF420E26EDEC4E6F4BC
:100CD000DDC4E5F40450080D040EF324D96E060EAD
:100CE000F420DA6E010EDF6E042A090E04647BEF35
:100CF00086F07DEF86F017EF86F01200A2904C0E82
:100D00000501B86F0A0EB96F010EBA6FA292220EDA
:100D1000BB6F130EBC6F010EBD6F000E0201A16F01
:100D2000000EA26F000EA36F000EA46F000EA56F41
:100D3000000EA66F000EA76F000EA86F000EA96F21
:100D4000000EAA6FB00EAB6F800EAC6F080EAD6FC9
:100D5000E10EAE6F040EAF6F200EB06F000EB16FDC
:100D6000000EB26F000EB36F400E076E170E086EC6
:100D7000010E096E7BEC8AF03E0E076E170E086EB0
:100D8000010E096E6AEC8AF0000E076E000E086E06
:100D9000000E096E59EC8AF0000E0501C66F000EB8
:100DA000C56F000E596E000E586E400E576E000E45
:100DB000566E000E556E000E546EA2801200000E8C
:100DC000116E1150080D050EF324D96E060EF42095
:100DD000DA6EDE50DE10DE10D8A4F1EF86F0F3EF0D
:100DE00086F025EF87F01150080D000EF324D96E20
:100DF000060EF420DA6E07C5DEF408C5DDF41150E6
:100E0000080D020EF324D96E060EF420DA6E09C521
:100E1000DEF40AC5DDF41150080D040EF324D96E7A
:100E2000060EF420DA6E000EDF6E1150080D050E6E
:100E3000F324D96E060EF420DA6E0BC5DEF40CC571
:100E4000DEF40DC5DEF42EEF87F0112A090E1164D1
:100E50002CEF87F02EEF87F0E1EF86F012000C50B8
:100E60000D10D8B436EF87F038EF87F041EF87F0F8
:100E70000C500D10D8A43FEF87F041EF87F046EFFC
:100E800087F00A509DEC8AF079EF87F020EE09F0A8
:100E90000C50D9260D50DA22DE50DE10D8B453EFB4
:100EA00087F055EF87F070EF87F020EE09F00C50D7
:100EB000D9260D50DA2210EE03F00C50E1260D5029
:100EC000E222DE50E65CE650800A126EDE50800AB6
:100ED0001258D8B06EEF87F070EF87F079EF87F097
:100EE00020EE03F00C50D9260D50DA22DE2A000E37
:100EF000DD22120002019BA580EF87F082EF87F0D0
:100F00008DEF87F09AA587EF87F089EF87F08DEF57
:100F100087F009EC8AF0C3EF87F09BAF92EF87F080
:100F200094EF87F0B1EF87F09AAF99EF87F09BEFDE
:100F300087F0B1EF87F005019B51D8B4A2EF87F09D
:100F4000A4EF87F0ADEF87F0000E9B6F02019A913E
:100F50009A9FF4EC89F0C3EF87F046EC8AF089EFB2
:100F600087F09BA3B6EF87F0B8EF87F0C3EF87F069
:100F70009AA3BDEF87F0BFEF87F0C3EF87F099EC3E
:100F80008BF002019A931200ACEC8AF0D68E2A0EF6
:100F9000076E0C0E086E010E096E59EC8BF0000EF8
:100FA000086E000E076E010E0A6EF40E096E3C0EFE
:100FB0000B6E140E0C6E010E0D6EDFEC86F0000E43
:100FC000086E000E076E000E0A6E000E096E840E8B
:100FD0000B6E100E0C6E010E0D6EDFEC86F0030E24
:100FE000086EE80E076E030E0A6EE80E096E920E8A
:100FF0000B6E150E0C6E010E0D6EDFEC86F0A6EC7E
:1010000084F0FFEF87F00DEF00F01FBE0AEF88F0CD
:101010000CEF88F012EF88F01EC523F51FC524F5EC
:1010200016EF88F0000E246E000E236E000E226E66
:10103000000E216E28EF88F0000E0B6E200E0A6E57
:101040001AC50CF51BC50DF52FEC87F0214A222A95
:101050002350215C2250800A206E2450800A2058A0
:10106000D8A035EF88F037EF88F01CEF88F01CC56A
:1010700013F51DC514F51AC515F51BC516F5F4ECC9
:1010800088F01200FA0E0501F96FFF0EFA6F32ECCC
:101090008AF0E70E0501F96FFF0EFA6F32EC8AF065
:1010A000EE0E0501F96FFF0EFA6F32EC8AF0A20E18
:1010B0000501F96FFF0EFA6F32EC8AF05D0E050143
:1010C000F96FFF0EFA6F32EC8AF0A20E0501F96F8C
:1010D000FF0EFA6F32EC8AF09F0E0501F96FFF0EDA
:1010E000FA6F32EC8AF01200040E0201946F800E47
:1010F000956F080E966F030E9C6F000E9A6F000E90
:101100009B6F000E976F000E8D6F510E896F510E01
:10111000886F3BEC8BF002019B919B95948F040EA2
:10112000E82EFED700F000F000F000F000F000F034
:1011300002019A919A959B85480E076E170E086ECC
:10114000010E096E8CEC8AF01200F5C550F5F6C55B
:1011500051F5B9EF88F0F3C548F5F4C549F5500EDF
:101160004A6E050E4B6EF7C54CF5F8C54DF575EC9E
:1011700083F050C5F6F451C5F7F4000EF86E080080
:10118000F5500009D8A4C7EF88F0C9EF88F0ABEF9D
:1011900088F0000E0501F46F000EF36F1200086E68
:1011A000A2B2D5EF88F0D7EF88F0DBEF88F008C562
:1011B000A3F2F2EF88F05750D8B4E1EF88F0E3EFF4
:1011C00088F0F2EF88F0500E5924D96EDA6A060ED4
:1011D000DA2208C5DFF459283F0B076E07C559F519
:1011E000A2925706A2821200000E196E000E186E0F
:1011F00005EF89F017C50AF50B6A15C50CF516C57C
:101200000DF52FEC87F0184A192A18501324D96EBF
:1012100019501420DA6EDF50176E1750D8A413EF50
:1012200089F015EF89F0FAEF88F01200D69AAF90A6
:10123000D680000E076E000E086E000E096E6EEC72
:101240008BF0B490D682000E076E000E086E000E72
:10125000096E67EC8BF0B890D684460E076E170EB9
:10126000086E010E096E60EC8BF0A88012001ABEA9
:1012700044EF89F01A5006E11904D8B042EF89F022
:1012800044EF89F052EF89F019C51BF51AC51CF51A
:101290001B1E1C1E1B4A1C2A1BC519F51CC51AF552
:1012A00056EF89F019C519F51AC51AF512008FEC19
:1012B0008BF075EC8BF04FEC8BF07AEC8BF002013D
:1012C000949F45EC8BF002019B919B95948F040EAB
:1012D000E82EFED700F000F000F000F000F000F083
:1012E00002019A919A959B85120001EE00F2900EF0
:1012F000EE6AE806FDE101EE60F1890EEE6AE806AD
:10130000FDE1596A586A576A566A556A546A040177
:10131000080E5D6F000E5E6F000E5F6F0001C4EF80
:1013200087F0400E576097EF89F099EF89F0AAEFA8
:1013300089F0500E5824D96EDA6A060EDA22DF5090
:101340000201A36F58283F0B016E01C558F5572ABB
:10135000ABEF89F0A2921200B19E0501AC51AD1124
:10136000AE11D8B4B6EF89F0B8EF89F0C5EF89F0C7
:1013700002D8C5EF89F00500FA6EAC51FD6EAD5193
:10138000FE6EAE51FF6EFA50120012000501AF5111
:10139000B011B111D8B4CFEF89F0D1EF89F0DEEF01
:1013A00089F002D8DEEF89F00500FA6EAF51FD6ECC
:1013B000B051FE6EB151FF6EFA5012001200950E40
:1013C0000301196F000E186F650E1B6F420E076E3A
:1013D000170E086E010E096E59EC8BF0B19EA18EAE
:1013E000890E03011A6F1200050199519A11D8B4A0
:1013F000FCEF89F0FEEF89F001EF8AF099518BEC58
:101400008BF0D8800501913583EC8BF096EC8BF056
:101410001200000E0501906F000E926F9169000E90
:10142000936F000E946F000E976F000E986F8FEC05
:101430008BF075EC8BF07AEC8BF01200C3B623EFD7
:101440008AF026EF8AF0010E27EF8AF0000EFF0ADD
:10145000076E074607460746C3500718F70B0718DD
:10146000C36E1200FB0E526E050E536E000E050188
:10147000F36F000EF46FF9C5F5F5FAC5F6F5520EE7
:10148000F76F050EF86FA5EC88F0120099EC8BF061
:101490009CEC8BF00009D8B450EF8AF052EF8AF040
:1014A00058EF8AF0000E8BEC8BF0000E87EC8BF07F
:1014B0001200075008100910D8B461EF8AF063EFEA
:1014C0008AF069EF8AF007C5A3F508C5A4F509C538
:1014D000A5F51200075008100910D8B472EF8AF071
:1014E00074EF8AF07AEF8AF007C5A6F508C5A7F56C
:1014F00009C5A8F51200075008100910D8B483EFE9
:101500008AF085EF8AF08BEF8AF007C5A9F508C548
:10151000AAF509C5ABF51200075008100910D8B498
:1015200094EF8AF096EF8AF09CEF8AF007C5BEF53B
:1015300008C5BFF509C5C0F51200096EE3EC8AF0D5
:101540000009D8B4A6EF8AF0A8EF8AF09EEF8AF0DF
:101550000950CFEC88F01200BBEC8AF024EC84F048
:1015600074EC88F0D6EC8AF0DFEC89F07EEC86F043
:1015700016EC89F01200600E0001AD6F000EAF6F27
:10158000000EB36F070EB16F000EB06F000EAC6FA0
:101590001200F50E0501F96FFF0EFA6FC8C5FBF5D5
:1015A000FC6B32EC8AF00501C82B1200400E0001E2
:1015B000856F000E866F010E8C6FEF0E896FC89CD1
:1015C000020E846F12005750D8A4E9EF8AF0ECEFB6
:1015D0008AF0010EEDEF8AF0000E120093C5D9F4E7
:1015E00094C5DAF40501934B942BDF5087EC8BF014
:1015F000120093EC8BF097C5D9F498C5DAF4DF6E3E
:101600000501974B982B1200020195BB0AEF8BF056
:101610000DEF8BF0010E0EEF8BF0000E12000201A9
:1016200098B715EF8BF018EF8BF0010E19EF8BF0D8
:10163000000E1200020197BD20EF8BF023EF8BF01C
:10164000010E24EF8BF0000E1200020197BB2BEF6E
:101650008BF02EEF8BF0010E2FEF8BF0000E1200AF
:10166000020198A736EF8BF039EF8BF0010E3AEFBD
:101670008BF0000E1200A584A586A580A58202012C
:101680009B859B839B8F97811200A584A586A5804F
:10169000A58202019B859B839B8F97811200A59455
:1016A000A596A590A592000E02019B6F000E976F64
:1016B000120007C5ACF508C5ADF509C5AEF51200B9
:1016C00007C5AFF508C5B0F509C5B1F5120007C5E6
:1016D000B2F508C5B3F509C5B4F5120007C5B5F5EF
:1016E00008C5B6F509C5B7F512000201979B979D8D
:1016F00097991200000E0201996F99851200B89017
:10170000C6EC89F01200016E01C58FF21200016E65
:1017100001C58CF21200016E01C58DF21200000E9F
:1017200002019A6F120002018B5112000201948B88
:1017300012000201949D120002018D51120012004C
:0A1740001200120012001200120045
:020000040020DA
:10000000FF0FFF0FFF0FFF0FFF0FFF0FFF0FFF0F80
:10001000FF0FFF0FFF0FFF0FFF0FFF0FFF0FFF0F70
:10002000FF0FFF0FFF0FFF0FFF0FFF0FFF0FFF0F60
:10003000FF0FFF0FFF0FFF0FFF0FFF0FFF0FFF0F50
:020000040030CA
:0A000000FFFFF7FF9FFFFFFFFFFF68
:00000001FF
